:020000021000EC
:10F0000000000120610D0200A50D0200A70D020005
:10F01000A90D0200AB0D0200AD0D020000000000C2
:10F02000000000000000000000000000AF0D020022
:10F03000B10D020000000000B30D0200B50D02008A
:10F04000050A0200B70D02001DFC0100B10002001C
:10F05000BDFE0100B70D02008D040200B1010200E7
:10F06000B70D0200B70D0200B70D0200B70D020088
:10F07000B70D0200B70D0200B70D0200B70D020078
:10F080008DFC010001090200B70D0200B70D02005E
:10F09000B70D0200B70D02001DF50100B70D02000B
:10F0A000B70D0200B70D0200B70D0200B70D020048
:10F0B000B70D0200B70D02000000000000000000C4
:10F0C000B70D0200B70D0200B70D0200B70D020028
:10F0D00015090200B70D0200B70D02000000000084
:10F0E0000000000000000000000000000000000020
:10F0F0000000000000000000000000000000000010
:10F1000000000000000000000000000000000000FF
:10F1100000000000000000000000000000000000EF
:10F4000001231846704700BF00B585B03D4B1B78FF
:10F41000DBB283F00103DBB2002B6FD100238DF848
:10F420000F30394B1B68002B0CBF012300238DF8D4
:10F430000E309DF80F3083F00103DBB2002B24D097
:10F44000324B1B78DBB2002B55D16B46184600F0CF
:10F4500001FB0290029B052B03D101238DF80F3095
:10F4600013E0029B002B03D0029800F0C3FA0CE0DB
:10F47000009B184601F0F2FA254B1B68002B04D0C4
:10F48000234B1B68009A104698479DF80E3083F076
:10F490000103DBB2002B25D01C4B1B78DBB2002B09
:10F4A0002BD11C4B1B88ADF806301B4B1B680DF194
:10F4B00006021146184600F0D1FA0290029B052B75
:10F4C00003D101238DF80E300CE0029B002B03D0FA
:10F4D000029800F08FFA05E00B4B1B680E4A126889
:10F4E000104698479DF80F30002BA2D09DF80E30A3
:10F4F000002B03D19DE700BF00E000BF05B05DF821
:10F5000004FB00BFDC1A0020E81A0020DD1A0020EE
:10F51000EC1A0020E41A0020E01A002000B583B0A5
:10F520000A4B1B68002B0CD0084B1B6898470190B6
:10F53000019B0093009B002B05D0009800F05AFA25
:10F5400001E0FFF761FF03B05DF804FBD81A00206B
:10F55000BFF34F8F0549054BDB6803F4E062044BB2
:10F560001343CB60BFF34F8F00BFFDE700ED00E01A
:10F570000400FA05014B024A1A607047C0190020C6
:10F580000090D00308B500F025F90346002B02D007
:10F59000824B834A1A6000F039F90346002B06D0EB
:10F5A000804A814B1B6803F460435B0B136000F0DF
:10F5B00059F90346002B05D07C4A7C4BDB6823F0CD
:10F5C0008073D36000F06AF90346002B0ED04FF031
:10F5D00080430022C3F80C214FF080430022C3F87F
:10F5E00010214FF080430022C3F8382500F082F943
:10F5F0000346002B02D06E4B03221A6000F096F9EE
:10F600000346002B0BD06B4B05221A606A4B01227C
:10F610001A606A4B00221A60694B3F221A6000F0A0
:10F62000A1F90346002B76D0664A4FF08053D3F8F9
:10F630000434C2F82035634A4FF08053D3F80834BD
:10F64000C2F824355F4A4FF08053D3F80C34C2F827
:10F6500028355C4A4FF08053D3F81034C2F82C356B
:10F66000584A4FF08053D3F81434C2F83035554A15
:10F670004FF08053D3F81834C2F83435514A4FF064
:10F680008053D3F81C34C2F840354E4A4FF08053B3
:10F69000D3F82034C2F844354A4A4FF08053D3F8A7
:10F6A0002434C2F84835474A4FF08053D3F8283401
:10F6B000C2F84C35434A4FF08053D3F82C34C2F88B
:10F6C0005035404A4FF08053D3F83034C2F85435A7
:10F6D0003C4A4FF08053D3F83434C2F86035394A8D
:10F6E0004FF08053D3F83834C2F86435354A4FF0C0
:10F6F0008053D3F83C34C2F86835324A4FF0805317
:10F70000D3F84034C2F86C352E4A4FF08053D3F80A
:10F710004434C2F8703500F041F90346002B05D09F
:10F72000294A2A4B1B6803F04F0313604FF0102344
:10F73000D3F80032002B05DB4FF01023D3F804324E
:10F74000002B27DA224B0122C3F80425204BD3F8E3
:10F750000034002BFAD04FF010231522C3F80022FA
:10F760001B4BD3F80034002BFAD04FF01023152296
:10F77000C3F80422164BD3F80034002BFAD0144BF4
:10F780000022C3F80425124BD3F80034002BFAD022
:10F79000FFF7DEFEFFF7EEFE08BD00BF74C00740B6
:10F7A0000DF0ADBA3C05004044020010F0ED00E061
:10F7B000A0050040105600408856004018560040F2
:10F7C0001456004000C00040E40E004058020010F3
:10F7D00000E001400A4B1B68DBB2062B0DD1094B40
:10F7E0001B6803F00F03002B07D1074B1B6803F0C6
:10F7F000F003302B01D1012300E0002318467047AD
:10F80000E00F00F0E40F00F0E80F00F0124B1B686F
:10F81000DBB2062B1DD1114B1B6803F00F03002B2D
:10F8200017D10F4B1B6803F0F003302B01D10123DC
:10F8300010E00B4B1B6803F0F003402B01D10123B8
:10F8400008E0074B1B6803F0F003502B01D10123A4
:10F8500000E0002318467047E00F00F0E40F00F0CE
:10F86000E80F00F00A4B1B68DBB2062B0DD1094BE9
:10F870001B6803F00F03002B07D1074B1B6803F035
:10F88000F003302B01D1012300E00023184670471C
:10F89000E00F00F0E40F00F0E80F00F0124B1B68DF
:10F8A000DBB2062B1DD1114B1B6803F00F03002B9D
:10F8B00017D10F4B1B6803F0F003302B01D101234C
:10F8C00010E00B4B1B6803F0F003402B01D1012328
:10F8D00008E0074B1B6803F0F003502B01D1012314
:10F8E00000E0002318467047E00F00F0E40F00F03E
:10F8F000E80F00F00A4B1B68DBB2062B0DD1094B59
:10F900001B6803F00F03002B07D1074B1B6803F0A4
:10F91000F003302B01D1012300E00023184670478B
:10F92000E00F00F0E40F00F0E80F00F00A4B1B6856
:10F93000DBB2062B0DD1094B1B6803F00F03002B24
:10F9400007D1074B1B6803F0F003302B01D10123D3
:10F9500000E0002318467047E00F00F0E40F00F0CD
:10F96000E80F00F00A4B1B68DBB2062B0DD1094BE8
:10F970001B6803F00F03002B07D1074B1B6803F034
:10F98000F003502B01D1012300E0002318467047FB
:10F99000E00F00F0E40F00F0E80F00F0124B1B68DE
:10F9A000DBB2062B1DD1114B1B6803F00F03002B9C
:10F9B00017D10F4B1B6803F0F003302B01D101234B
:10F9C00010E00B4B1B6803F0F003402B01D1012327
:10F9D00008E0074B1B6803F0F003502B01D1012313
:10F9E00000E0002318467047E00F00F0E40F00F03D
:10F9F000E80F00F000B587B001900023ADF80C309F
:10FA000000230493019B059303AB1A46002144F2A3
:10FA1000010000F015F807B05DF804FBBFF34F8F4D
:10FA20000549054BDB6803F4E062044B1343CB60EC
:10FA3000BFF34F8F00BFFDE700ED00E00400FA05C3
:10FA400000B585B0039002910192FFF7E7FF05B082
:10FA50005DF804FB48DF7047184600BF61DF704760
:10FA6000184600BF00B589B003900B4601928DF88F
:10FA70000B3001238DF810309DF80B308DF81830C5
:10FA8000019B0593039B5B68039A116804AA1046C7
:10FA9000984709B05DF804FB00B587B001900B46AC
:10FAA0008DF8033000238DF808309DF803308DF871
:10FAB0001030019B9B680393019B00229A75019B68
:10FAC0005B68019A116802AA1046984707B05DF872
:10FAD00004FB00BF00B589B0019000914FF4927112
:10FAE000019800F009FA0346002B24D04FF49271DC
:10FAF000019800F0EDF902238DF80830019800F02C
:10FB00001BFA03460593019800F02CFA0346DBB27A
:10FB10008DF81030009BDB680393009B0022DA75A0
:10FB2000009B00221A76009B5B68009A116802AA6B
:10FB30001046984735E04FF48871019800F0DCF9E1
:10FB40000346002B2DD04FF48871019800F0C0F9C6
:10FB5000019800F007FA03468DF81F30009BDB7D0B
:10FB60009DF81F209A421CD1009B1B7E002B18D0B1
:10FB7000009BDB6806932021019800F0CFF9009BE1
:10FB80001A7E009BDA75009B1A69009BDA60009B65
:10FB900000221A769DF81F30069A19460098FFF742
:10FBA00061FF4FF4A271019800F0A6F90346002B03
:10FBB00016D04FF4A271019800F08AF9009BDB7D0A
:10FBC000002B0DD0009B0022DA75019800F0CAF9D5
:10FBD0000346D9B2009BDB681A460098FFF742FF44
:10FBE0004FF49071019800F087F90346002B11D073
:10FBF0004FF49071019800F06BF9009B9B7D002BF6
:10FC000008D0019800F0A6F90346DBB21946009827
:10FC1000FFF742FF09B05DF804FB00BF08B5044BD5
:10FC20001B7F002B03D002490248FFF753FF08BD9A
:10FC3000B41A00200020004084B00346ADF806301E
:10FC4000BDF8063003F1804303F5803300221A60CB
:10FC5000BDF8063003F1804303F580331B6803933E
:10FC6000039B04B0704700BF82B00190064BD3F8ED
:10FC70000423019B1340002B14BF01230023DBB29C
:10FC8000184602B0704700BF0000014008B50120CF
:10FC9000FFF7EAFF0346002B06D04FF48070FFF712
:10FCA000CBFF024B1B68984708BD00BFD41A002049
:10FCB00000B589B0019000914FF49271019800F065
:10FCC00029FA0346002B27D04FF49271019800F0D7
:10FCD0000DFA4FF48271019800F01CFA034683F08C
:10FCE0000103DBB2002B17D0009B9B6819460198DB
:10FCF00000F02CFA009B02229A60009B9B68194638
:10FD0000019800F019FA2021019800F0E1F914217E
:10FD1000019800F0DDF9CDE04FF48271019800F018
:10FD2000F9F90346002B55D04FF48271019800F089
:10FD3000DDF9009A04AB0C3207CA83E80700009B88
:10FD400093F82330002B21D0009B1B7B012B05D186
:10FD5000019800F025FA0346DBB204E0019800F0B8
:10FD600017FA0346DBB28DF81230009B1B7B022B87
:10FD700005D1019800F014FA0346DBB204E00198C3
:10FD800000F006FA0346DBB28DF813304FF4B07181
:10FD9000019800F0ABF94FF4AE71019800F0A6F9AC
:10FDA000009B93F8253083F00103DBB2002B04D1D4
:10FDB000009B93F82330002B4DD00021019800F0D8
:10FDC000DDF9009B00229A604FF0FF31019800F0AE
:10FDD000BDF943E04FF4A471019800F087F9009B4E
:10FDE0001B7B002B1AD1009A04AB0C3207CA83E8A4
:10FDF0000700009B93F8253083F00103DBB2002B52
:10FE00002BD00021019800F0B9F9009B00229A60E4
:10FE10004FF0FF31019800F099F91FE04FF40071A5
:10FE2000019800F0ABF9009B40F202229A604FF07B
:10FE3000FF31019800F08AF9009B9B6819460198F0
:10FE400000F07AF90821019800F042F92021019888
:10FE500000F03EF92EE000BF00E000BF019800F086
:10FE60007FF90790079B03F00203002B03D00123C7
:10FE70008DF80C300BE0079B03F00403002B03D03C
:10FE800002238DF80C3002E000238DF80C30009B2B
:10FE900093F8253083F00103DBB2002B03D0009BE5
:10FEA000002283F82420009B1B68009A516803AA53
:10FEB0001046984709B05DF804FB00BF08B5034938
:10FEC0004FF04020FFF7F4FE08BD00BF8C1A002061
:10FED00084B001900B46ADF80230BDF80230019AB3
:10FEE000134400221A60BDF80230019A13441B68C3
:10FEF0000393039B04B0704782B001900B46ADF8AA
:10FF00000230BDF80230019A13441B68002B14BF65
:10FF100001230023DBB2184602B0704782B0019083
:10FF20000091019BD3F80022009BDB431A40019B08
:10FF3000C3F8002202B0704784B00190019BD3F84F
:10FF400080340393019B039AC3F88024039B1846D3
:10FF500004B0704782B00190019BD3F84C3518462D
:10FF600002B0704782B00190019BD3F83C3518462F
:10FF700002B0704782B001900091019B009AC3F8D3
:10FF8000082502B0704700BF00B583B00190019B07
:10FF90009B7EFF2B04D0019B9B7E184600F062FAEB
:10FFA000019B00225A76019B00221A71019B1B685B
:10FFB000019A04321046984703B05DF804FB00BF75
:10FFC00000B585B001900091019800F039FA034620
:10FFD0008DF80D30009B1A7F009B1B7D9A4208D242
:10FFE000009B1B69009A127F13449DF80D20D2B22A
:10FFF0001A70009B1B7F0133DAB2009B1A77009BBB
:020000022000DC
:100000001B7F9BB20133ADF80E30009B1B7B9BB274
:10001000BDF80E209A420BD2009B9A68BDF80E30B4
:1000200013441B781946019800F0FEF9012320E0E3
:10003000009B1B7D9BB2BDF80E209A4207D2009B0D
:10004000DB7E1946019800F0EFF9012311E0009BD7
:100050001A7F009B1B7B9A4205D3009B1A7F009B53
:100060001B7D9A4201D2012300E0002303F001032B
:10007000DBB2184605B05DF804FB00BF00B583B0E5
:10008000019000914FF48471019800F0B9F9009942
:100090000198FFF795FF034683F00103DBB2002BC5
:1000A00002D00098FFF770FF03B05DF804FB00BFBB
:1000B00000B583B0044B019301990448FFF7DEFFBC
:1000C00003B05DF804FB00BF6C1A00200030004054
:1000D00082B001900B468DF803309DF80330019AF1
:1000E000134401221A6002B0704700BF84B001902F
:1000F0000B46ADF80230BDF80230019A13440022DD
:100100001A60BDF80230019A13441B680393039BE5
:1001100004B0704782B001900B46ADF80230BDF8D4
:100120000230019A13441B68002B14BF01230023E3
:10013000DBB2184602B0704782B001900091019B7B
:10014000009AC3F8042302B0704700BF82B0019048
:100150000091019B009AC3F8082302B0704700BFCA
:1001600084B00190019BD3F8C4340393019B039A9C
:10017000C3F8C424039B184604B0704782B00190B2
:100180000091019B009AC3F8002202B0704700BFA3
:1001900082B00190019BD3F84C35184602B07047ED
:1001A00082B00190019BD3F83C35184602B07047ED
:1001B00000B58DB04FF4827000F0C4FB0346002BF5
:1001C00046D04FF4827000F0D1FB8C4B93F82E3068
:1001D00083F00103DBB2002B04D1884B93F82F305E
:1001E000002B35D000238DF80030844B5B680193E1
:1001F000824B1B899BB2ADF80830804BDB68002B2B
:1002000003D17E4B00221A7419E07C4B1A8B7B4B76
:100210005A837A4BDB68794A5360784B1A8B774B59
:100220001A81764B0022DA60744B93F82E3083F0FB
:100230000103DBB2002B02D0002000F075FB6F4BF6
:100240001B686A46104698476C4B002283F82F20A3
:100250006A4B93F82E30002B62D04FF4807000F080
:1002600071FB0346002B5BD04FF4807000F07EFBE7
:10027000624B5A8B614B93F82D309BB29A421CD93A
:100280005E4B5A8B5D4B93F82D309BB2D31A9AB2CA
:100290005A4B5A83594B5A68584B1B899BB2194683
:1002A000564B5B8BCB1A5B001A44544B93F82D30A2
:1002B0001946104600F072FB2BE0504B5A8B4F4B07
:1002C00093F82D309BB29A4214D14C4BDB68002B33
:1002D00010D04A4B012283F82F20484B00225A832A
:1002E000464BDA68454B93F82D301946104600F01E
:1002F00055FB0EE0414B5A8B404B93F82D309BB28F
:100300009A4206D13D4B012283F82F203B4B00221D
:100310005A834FF4827000F029FB042000F004FBA4
:100320004FF4887000F00EFB0346002B0ED04FF404
:10033000887000F01BFB314B00221A7402238DF8E9
:100340000C302E4B1B6803AA104698474FF48A7056
:1003500000F0F8FA0346002B07D04FF48A7000F043
:1003600005FB264B00221A7444E0244B5B690B9377
:100370003DE00B9BB3FA83F30A934FF000420A9BD4
:1003800022FA03F3DB430B9A13400B930A9B9BB2B5
:1003900046339BB29B00ADF82630BDF82630184698
:1003A00000F0D0FA0346002B21D0BDF826301846C5
:1003B00000F0DCFA01238DF81830BDF82630A3F5E3
:1003C0008C73DB08DBB28DF81C30BDF82630A3F54A
:1003D0008C7303F00403002B0CBF01230023DBB25A
:1003E0008DF81D30054B1B6806AA104698470B9BDD
:1003F000002BBED10DB05DF804FB00BF3C1A0020FD
:1004000084B001900B46ADF80230BDF80230019A7D
:10041000134400221A60BDF80230019A13441B688D
:100420000393039B04B0704782B001900B468DF894
:1004300003309DF80320019BC3F81C2502B07047D0
:1004400082B00190019BD3F81835DBB2184602B098
:10045000704700BF82B001904FF0A043184602B031
:10046000704700BF00B585B0019001AB1846FFF79B
:10047000F1FF0390019B012202FA03F3194603984E
:10048000FFF778FD05B05DF804FB00BF00B595B03F
:1004900000231393002303934FF48073ADF8463089
:1004A000012310930023129321E0BDF84630184633
:1004B00000F0E0FA0346002B0ED0109800F018FB75
:1004C0000346002B08D0BDF84630184600F0E8FA85
:1004D000139A109B13431393109B5B001093BDF86A
:1004E00046300433ADF84630129B01331293129B11
:1004F000072BDAD94FF4BE7000F0BCFA0346002B8C
:100500000DD04FF4BE7000F0CBFA139B43F00043C4
:10051000139303AB1A460121002000F069FB139BE3
:10052000DBB2002B29D0012310930023129321E08A
:10053000109A139B1340002B16D0129800F0E4FA87
:100540000D90129800F0F0FA03468DF833301298AF
:1005500000F0BAFB0B900B9B002B05D09DF83320CD
:100560000B9B11460D989847109B5B001093129BB4
:1005700001331293129B072BDAD9139B002B80F2C5
:10058000EE8000238DF83B300023029300230F936D
:100590000AE00F9B9B0014AA13444FF0FF3243F86C
:1005A0004C2C0F9B01330F930F9B002BF1D000239A
:1005B0008DF83B300023129378E06A4A129B134473
:1005C000543393F900308DF82B309DF82B3023F005
:1005D000C0030993634A129B1344543393F90030C8
:1005E000B3F1FF3F5FD001AB1946099800F026FB3D
:1005F0000346002B57D09DF82B309B098DF82330F4
:10060000099800F053FB0346184600F05DFB079085
:10061000079B002B03D19DF82330032B43D19DF87A
:100620002330032B04D102AB1946099800F01EFBBE
:10063000099800F0BFFA03468DF81B3003AB19464A
:10064000099800F0FBFA0590059B002B03D09DF85C
:100650001B30022B06D0059B002B24D19DF81B30AC
:10066000032B20D19DF82330032B13D19DF81B3091
:10067000022B01D1032300E002238DF813309DF8F3
:1006800013301946099800F069FA9DF83B300133A0
:100690008DF83B30079B002B05D09DF82320079B4E
:1006A000114609989847129B01331293129B042B11
:1006B00083D99DF83B30002B4CD001238DF83A3084
:1006C0006B461A460121002000F092FA00230F9396
:1006D00014E00F9B9B0014AA134453F8502C0F9B5B
:1006E0009B0014A90B4453F8443C9A4203D00023C6
:1006F0008DF83A3005E00F9B01330F930F9B002BD1
:10070000E7D09DF83A30002B03D000238DF83B3022
:1007100020E000230F931AE00F9B9B0014AA1344C0
:1007200053F8502C0F9B9B0014A90B4443F8442C06
:100730000F9B9B0014AA134453F8482C0F9B9B005B
:1007400014A90B4443F84C2C0F9B01330F930F9BC0
:10075000002BE1D09DF83B30002B7FF428AF15B083
:100760005DF804FBD819002082B001900091019B34
:10077000009AC3F8082302B0704700BF82B001900E
:100780000091019BD3F80423009B1340184602B04C
:10079000704700BF82B001900B46ADF80230BDF843
:1007A0000230019A13441B68184602B0704700BF1C
:1007B00084B001900B46ADF80230BDF80230019ACA
:1007C000134400221A60BDF80230019A13441B68DA
:1007D0000393039B04B0704782B001900091019B8A
:1007E000009AC3F8482302B0704700BF00B589B033
:1007F0000390029101924FF4803306934FF4A0735B
:10080000ADF816300023079330E006990398FFF700
:10081000B5FF0346002B1ED0BDF8163019460398CD
:10082000FFF7B8FF0346002B15D006990398FFF792
:10083000D3FF06990398FFF797FFBDF816301946C6
:100840000398FFF7B5FF2D4A029B52F82330079A11
:10085000D2B210469847069B5B000693BDF816304F
:100860000433ADF81630079B01330793079A019BB9
:100870009A42CAD34FF48073ADF816300121039821
:10088000FFF77CFF0346002B14D0BDF81630194645
:100890000398FFF77FFF0346002B0BD0BDF81630FF
:1008A00019460398FFF784FF144A029B52F823303D
:1008B000042098474FF48273ADF816300221039854
:1008C000FFF75CFF0346002B14D0BDF81630194625
:1008D0000398FFF75FFF0346002B0BD0BDF81630DF
:1008E00019460398FFF764FF044A029B52F823302D
:1008F0000520984709B05DF804FB00BF341A0020BA
:1009000008B5042200210248FFF770FF08BD00BFB0
:100910000010014008B5042201210248FFF766FFDC
:1009200008BD00BF0040024082B003468DF807308A
:100930009DF8073003F1804303F5E04301221A607C
:1009400002B0704782B00346ADF80630BDF80630FD
:1009500003F1804303F5E0431B68002B14BF012320
:100960000023DBB2184602B0704700BF84B00346D4
:10097000ADF80630BDF8063003F1804303F5E043DF
:1009800000221A60BDF8063003F1804303F5E0430E
:100990001B680393039B04B0704700BF82B00190B3
:1009A0000091054A019BC2F82C36034A009BC2F80D
:1009B000303602B0704700BF0070004000B585B00F
:1009C00003468DF807309DF80730002B02D10B4B02
:1009D000039301E00A4B0393039800F0B1F90290EE
:1009E000029B002B06D0029B5B689DF807201046F7
:1009F0009847F1E705B05DF804FB00BFCC19002073
:100A0000D419002008B54FF4807000F087F9034630
:100A1000002B0CD04FF4807000F06CF9012000F036
:100A20005FF90D4B01225A700020FFF7C7FF4FF40A
:100A3000827000F073F90346002B0CD04FF48270E3
:100A400000F058F9022000F04BF9034B01229A7094
:100A50000120FFF7B3FF08BDC419002000B583B023
:100A60000190019B002B02D10020FFF7A7FF03B0EC
:100A70005DF804FB00B583B00346ADF80630BDF861
:100A80000630184600F026F803461B68012B0CBF01
:100A900001230023DBB2184603B05DF804FB00BF5E
:100AA00000B585B00346ADF80630BDF806301846EF
:100AB00000F010F803461A4600231360BDF8063014
:100AC000184600F007F803461B680393039B05B024
:100AD0005DF804FB82B00346ADF80630BDF8063081
:100AE00003F1804303F5C043184602B0704700BFCE
:100AF00082B00190034BD3F80423019B13401846A6
:100B000002B070470060004082B00190054A019B2E
:100B100003F5A27352F8233003F4F8531B0A184666
:100B200002B070470060004082B00190064A019B0D
:100B300003F5A27352F8233003F440331B0CDBB2ED
:100B4000184602B0704700BF0060004082B00190BC
:100B50004FF0A043184602B0704700BF00B585B003
:100B600001900B468DF8033001AB1846FFF7EEFFFE
:100B70000390019A0199039B01F5E07153F821302C
:100B800023F44031039B02F5E07243F82210019AEE
:100B90000199039B01F5E07153F821309DF8031092
:100BA00009041943039B02F5E07243F8221005B0D3
:100BB0005DF804FB00B585B0019001AB1846FFF766
:100BC000C5FF0390019A039B02F5E07253F82230AF
:100BD00003F440331B0CDBB2184605B05DF804FB90
:100BE00082B00190019BD3F81035184602B07047CF
:100BF00000B587B00390029101924FF0A043049397
:100C0000039B059311E0059B9B0006AA134453F830
:100C1000083C1846FFF7E4FF0246019B1A60019B5F
:100C200004330193059B01330593039A029B1A44F5
:100C3000059B9A42E7D807B05DF804FB84B00190A9
:100C40000091009B0393019BDB080293019B03F03F
:100C5000070301930122019B02FA03F30399029A0D
:100C60000A4412781340184604B0704784B00190CB
:100C70000091009B0393019BDB080293019B03F00F
:100C800007030193039A029B13440399029A0A44AF
:100C9000127851B20120019A00FA02F252B20A43CC
:100CA00052B2D2B21A7004B0704700BF82B0019045
:100CB000044A019B1344343393F90030184602B0C0
:100CC000704700BFD819002082B00190034A019BF1
:100CD00052F82330184602B0704700BFD8190020E0
:100CE00082B001904FF08042019BC2F8083302B0FD
:100CF000704700BF84B00346ADF80630BDF806303B
:100D000003F1804300221A60BDF8063003F18043EE
:100D10001B680393039B04B0704700BF82B0034677
:100D2000ADF80630BDF8063003F180431B68002B98
:100D300014BF01230023DBB2184602B0704700BF86
:100D400084B00190019B1B680393039B002B03D08D
:100D5000039B1A68019B1A60039B184604B07047F6
:100D60000A490B4A0B4B9B1A03DD043BC858D05071
:100D7000FBDC0849084A0020521A02DD043A885078
:100D8000FCDC06488047064800470000B80D02001A
:100D9000C0190020C4190020F01A002085F50100B8
:100DA00001F40100FEE7FEE7FEE7FEE7FEE7FEE7EF
:080DB000FEE7FEE7FEE7FEE7A7
:040DB8000090D003D4
:0400000320000D616B
:00000001FF
